{
  "contractName": "CryptofieldBase",
  "abi": [
    {
      "constant": true,
      "inputs": [],
      "name": "name",
      "outputs": [
        {
          "name": "",
          "type": "string"
        }
      ],
      "payable": false,
      "stateMutability": "view",
      "type": "function"
    },
    {
      "constant": true,
      "inputs": [
        {
          "name": "_tokenId",
          "type": "uint256"
        }
      ],
      "name": "getApproved",
      "outputs": [
        {
          "name": "",
          "type": "address"
        }
      ],
      "payable": false,
      "stateMutability": "view",
      "type": "function"
    },
    {
      "constant": false,
      "inputs": [
        {
          "name": "_to",
          "type": "address"
        },
        {
          "name": "_tokenId",
          "type": "uint256"
        }
      ],
      "name": "approve",
      "outputs": [],
      "payable": false,
      "stateMutability": "nonpayable",
      "type": "function"
    },
    {
      "constant": true,
      "inputs": [],
      "name": "totalSupply",
      "outputs": [
        {
          "name": "",
          "type": "uint256"
        }
      ],
      "payable": false,
      "stateMutability": "view",
      "type": "function"
    },
    {
      "constant": false,
      "inputs": [
        {
          "name": "_from",
          "type": "address"
        },
        {
          "name": "_to",
          "type": "address"
        },
        {
          "name": "_tokenId",
          "type": "uint256"
        }
      ],
      "name": "transferFrom",
      "outputs": [],
      "payable": false,
      "stateMutability": "nonpayable",
      "type": "function"
    },
    {
      "constant": true,
      "inputs": [
        {
          "name": "_owner",
          "type": "address"
        },
        {
          "name": "_index",
          "type": "uint256"
        }
      ],
      "name": "tokenOfOwnerByIndex",
      "outputs": [
        {
          "name": "",
          "type": "uint256"
        }
      ],
      "payable": false,
      "stateMutability": "view",
      "type": "function"
    },
    {
      "constant": false,
      "inputs": [
        {
          "name": "_sender",
          "type": "address"
        },
        {
          "name": "_horseId",
          "type": "uint256"
        }
      ],
      "name": "mint",
      "outputs": [],
      "payable": false,
      "stateMutability": "nonpayable",
      "type": "function"
    },
    {
      "constant": false,
      "inputs": [
        {
          "name": "_from",
          "type": "address"
        },
        {
          "name": "_to",
          "type": "address"
        },
        {
          "name": "_tokenId",
          "type": "uint256"
        }
      ],
      "name": "safeTransferFrom",
      "outputs": [],
      "payable": false,
      "stateMutability": "nonpayable",
      "type": "function"
    },
    {
      "constant": true,
      "inputs": [
        {
          "name": "_tokenId",
          "type": "uint256"
        }
      ],
      "name": "exists",
      "outputs": [
        {
          "name": "",
          "type": "bool"
        }
      ],
      "payable": false,
      "stateMutability": "view",
      "type": "function"
    },
    {
      "constant": true,
      "inputs": [
        {
          "name": "_index",
          "type": "uint256"
        }
      ],
      "name": "tokenByIndex",
      "outputs": [
        {
          "name": "",
          "type": "uint256"
        }
      ],
      "payable": false,
      "stateMutability": "view",
      "type": "function"
    },
    {
      "constant": true,
      "inputs": [
        {
          "name": "_tokenId",
          "type": "uint256"
        }
      ],
      "name": "ownerOf",
      "outputs": [
        {
          "name": "",
          "type": "address"
        }
      ],
      "payable": false,
      "stateMutability": "view",
      "type": "function"
    },
    {
      "constant": true,
      "inputs": [
        {
          "name": "_owner",
          "type": "address"
        }
      ],
      "name": "balanceOf",
      "outputs": [
        {
          "name": "",
          "type": "uint256"
        }
      ],
      "payable": false,
      "stateMutability": "view",
      "type": "function"
    },
    {
      "constant": false,
      "inputs": [],
      "name": "renounceOwnership",
      "outputs": [],
      "payable": false,
      "stateMutability": "nonpayable",
      "type": "function"
    },
    {
      "constant": true,
      "inputs": [
        {
          "name": "_from",
          "type": "address"
        }
      ],
      "name": "_getHorsesOwned",
      "outputs": [
        {
          "name": "",
          "type": "uint256[]"
        }
      ],
      "payable": false,
      "stateMutability": "view",
      "type": "function"
    },
    {
      "constant": true,
      "inputs": [],
      "name": "owner",
      "outputs": [
        {
          "name": "",
          "type": "address"
        }
      ],
      "payable": false,
      "stateMutability": "view",
      "type": "function"
    },
    {
      "constant": true,
      "inputs": [],
      "name": "symbol",
      "outputs": [
        {
          "name": "",
          "type": "string"
        }
      ],
      "payable": false,
      "stateMutability": "view",
      "type": "function"
    },
    {
      "constant": false,
      "inputs": [
        {
          "name": "_to",
          "type": "address"
        },
        {
          "name": "_approved",
          "type": "bool"
        }
      ],
      "name": "setApprovalForAll",
      "outputs": [],
      "payable": false,
      "stateMutability": "nonpayable",
      "type": "function"
    },
    {
      "constant": false,
      "inputs": [
        {
          "name": "_from",
          "type": "address"
        },
        {
          "name": "_to",
          "type": "address"
        },
        {
          "name": "_horseId",
          "type": "uint256"
        }
      ],
      "name": "_transferTo",
      "outputs": [],
      "payable": false,
      "stateMutability": "nonpayable",
      "type": "function"
    },
    {
      "constant": false,
      "inputs": [
        {
          "name": "_from",
          "type": "address"
        },
        {
          "name": "_to",
          "type": "address"
        },
        {
          "name": "_tokenId",
          "type": "uint256"
        },
        {
          "name": "_data",
          "type": "bytes"
        }
      ],
      "name": "safeTransferFrom",
      "outputs": [],
      "payable": false,
      "stateMutability": "nonpayable",
      "type": "function"
    },
    {
      "constant": true,
      "inputs": [
        {
          "name": "_tokenId",
          "type": "uint256"
        }
      ],
      "name": "tokenURI",
      "outputs": [
        {
          "name": "",
          "type": "string"
        }
      ],
      "payable": false,
      "stateMutability": "view",
      "type": "function"
    },
    {
      "constant": true,
      "inputs": [
        {
          "name": "_from",
          "type": "address"
        }
      ],
      "name": "getOwnedTokens",
      "outputs": [
        {
          "name": "",
          "type": "uint256[]"
        }
      ],
      "payable": false,
      "stateMutability": "view",
      "type": "function"
    },
    {
      "constant": true,
      "inputs": [
        {
          "name": "_owner",
          "type": "address"
        },
        {
          "name": "_operator",
          "type": "address"
        }
      ],
      "name": "isApprovedForAll",
      "outputs": [
        {
          "name": "",
          "type": "bool"
        }
      ],
      "payable": false,
      "stateMutability": "view",
      "type": "function"
    },
    {
      "constant": false,
      "inputs": [
        {
          "name": "_newOwner",
          "type": "address"
        }
      ],
      "name": "transferOwnership",
      "outputs": [],
      "payable": false,
      "stateMutability": "nonpayable",
      "type": "function"
    },
    {
      "anonymous": false,
      "inputs": [
        {
          "indexed": true,
          "name": "previousOwner",
          "type": "address"
        }
      ],
      "name": "OwnershipRenounced",
      "type": "event"
    },
    {
      "anonymous": false,
      "inputs": [
        {
          "indexed": true,
          "name": "previousOwner",
          "type": "address"
        },
        {
          "indexed": true,
          "name": "newOwner",
          "type": "address"
        }
      ],
      "name": "OwnershipTransferred",
      "type": "event"
    },
    {
      "anonymous": false,
      "inputs": [
        {
          "indexed": true,
          "name": "_from",
          "type": "address"
        },
        {
          "indexed": true,
          "name": "_to",
          "type": "address"
        },
        {
          "indexed": false,
          "name": "_tokenId",
          "type": "uint256"
        }
      ],
      "name": "Transfer",
      "type": "event"
    },
    {
      "anonymous": false,
      "inputs": [
        {
          "indexed": true,
          "name": "_owner",
          "type": "address"
        },
        {
          "indexed": true,
          "name": "_approved",
          "type": "address"
        },
        {
          "indexed": false,
          "name": "_tokenId",
          "type": "uint256"
        }
      ],
      "name": "Approval",
      "type": "event"
    },
    {
      "anonymous": false,
      "inputs": [
        {
          "indexed": true,
          "name": "_owner",
          "type": "address"
        },
        {
          "indexed": true,
          "name": "_operator",
          "type": "address"
        },
        {
          "indexed": false,
          "name": "_approved",
          "type": "bool"
        }
      ],
      "name": "ApprovalForAll",
      "type": "event"
    },
    {
      "constant": false,
      "inputs": [
        {
          "name": "_buyerAddress",
          "type": "address"
        },
        {
          "name": "_bio",
          "type": "string"
        },
        {
          "name": "_height",
          "type": "uint256"
        },
        {
          "name": "_byteParams",
          "type": "bytes32[8]"
        }
      ],
      "name": "buyStallion",
      "outputs": [],
      "payable": true,
      "stateMutability": "payable",
      "type": "function"
    },
    {
      "constant": false,
      "inputs": [
        {
          "name": "_from",
          "type": "address"
        },
        {
          "name": "_to",
          "type": "address"
        },
        {
          "name": "_horseId",
          "type": "uint256"
        }
      ],
      "name": "sendHorse",
      "outputs": [],
      "payable": false,
      "stateMutability": "nonpayable",
      "type": "function"
    },
    {
      "constant": true,
      "inputs": [
        {
          "name": "_from",
          "type": "address"
        }
      ],
      "name": "getHorsesOwned",
      "outputs": [
        {
          "name": "",
          "type": "uint256[]"
        }
      ],
      "payable": false,
      "stateMutability": "view",
      "type": "function"
    },
    {
      "constant": true,
      "inputs": [],
      "name": "getStallionsAvailable",
      "outputs": [
        {
          "name": "",
          "type": "uint256"
        }
      ],
      "payable": false,
      "stateMutability": "view",
      "type": "function"
    },
    {
      "constant": true,
      "inputs": [
        {
          "name": "_horseId",
          "type": "uint256"
        }
      ],
      "name": "getHorse",
      "outputs": [
        {
          "name": "",
          "type": "bytes32"
        },
        {
          "name": "",
          "type": "bytes32"
        }
      ],
      "payable": false,
      "stateMutability": "view",
      "type": "function"
    }
  ],
  "bytecode": "0x610457600e55600660808181527f43546f6b656e000000000000000000000000000000000000000000000000000060a0908152610100604052600260c09081527f435400000000000000000000000000000000000000000000000000000000000060e05291926200007391600491620000ab565b50805162000089906005906020840190620000ab565b5050600b805433600160a060020a031991821681179091161790555062000150565b828054600181600116156101000203166002900490600052602060002090601f016020900481019282601f10620000ee57805160ff19168380011785556200011e565b828001600101855582156200011e579182015b828111156200011e57825182559160200191906001019062000101565b506200012c92915062000130565b5090565b6200014d91905b808211156200012c576000815560010162000137565b90565b611ea180620001606000396000f3006080604052600436106101695763ffffffff7c010000000000000000000000000000000000000000000000000000000060003504166306fdde03811461016e578063081812fc146101f8578063095ea7b31461022c5780630eb554d11461025257806318160ddd1461027957806323b872dd1461028e5780632f745c59146102b857806340c10f19146102dc57806342842e0e146103005780634c1eb6ad1461032a5780634f558e79146103b55780634f57641c146103e15780634f6ccce7146104125780636352211e1461042a5780636f3fe3651461044257806370a082311461046c578063715018a61461048d57806379d41173146104a25780638da5cb5b1461051357806395d89b4114610528578063a22cb4651461053d578063b61727ed14610563578063b88d4fde1461058d578063c87b56dd146105fc578063d5d0085514610614578063d9d6165514610635578063e985e9c514610656578063f2fde38b1461067d575b600080fd5b34801561017a57600080fd5b5061018361069e565b6040805160208082528351818301528351919283929083019185019080838360005b838110156101bd5781810151838201526020016101a5565b50505050905090810190601f1680156101ea5780820380516001836020036101000a031916815260200191505b509250505060405180910390f35b34801561020457600080fd5b50610210600435610735565b60408051600160a060020a039092168252519081900360200190f35b34801561023857600080fd5b50610250600160a060020a0360043516602435610750565b005b34801561025e57600080fd5b50610267610835565b60408051918252519081900360200190f35b34801561028557600080fd5b5061026761083b565b34801561029a57600080fd5b50610250600160a060020a0360043581169060243516604435610841565b3480156102c457600080fd5b50610267600160a060020a03600435166024356108f0565b3480156102e857600080fd5b50610250600160a060020a036004351660243561093d565b34801561030c57600080fd5b50610250600160a060020a036004358116906024351660443561094b565b60408051602060046024803582810135601f8101859004850286018501909652858552610250958335600160a060020a0316953695604494919390910191908190840183828082843750506040805161010081810190925295988735989097909661012082019650945060200192506008915083908390808284375093965061098395505050505050565b3480156103c157600080fd5b506103cd600435610d4e565b604080519115158252519081900360200190f35b3480156103ed57600080fd5b506103f9600435610d6b565b6040805192835260208301919091528051918290030190f35b34801561041e57600080fd5b5061026760043561120a565b34801561043657600080fd5b5061021060043561123f565b34801561044e57600080fd5b50610250600160a060020a0360043581169060243516604435611269565b34801561047857600080fd5b50610267600160a060020a0360043516611274565b34801561049957600080fd5b506102506112a7565b3480156104ae57600080fd5b506104c3600160a060020a0360043516611308565b60408051602080825283518183015283519192839290830191858101910280838360005b838110156104ff5781810151838201526020016104e7565b505050509050019250505060405180910390f35b34801561051f57600080fd5b50610210611313565b34801561053457600080fd5b50610183611322565b34801561054957600080fd5b50610250600160a060020a03600435166024351515611383565b34801561056f57600080fd5b50610250600160a060020a0360043581169060243516604435611407565b34801561059957600080fd5b50604080516020601f60643560048181013592830184900484028501840190955281845261025094600160a060020a03813581169560248035909216956044359536956084940191819084018382808284375094975061141c9650505050505050565b34801561060857600080fd5b5061018360043561145b565b34801561062057600080fd5b506104c3600160a060020a0360043516611510565b34801561064157600080fd5b506104c3600160a060020a036004351661151b565b34801561066257600080fd5b506103cd600160a060020a0360043581169060243516611586565b34801561068957600080fd5b50610250600160a060020a03600435166115b4565b60048054604080516020601f600260001961010060018816150201909516949094049384018190048102820181019092528281526060939092909183018282801561072a5780601f106106ff5761010080835404028352916020019161072a565b820191906000526020600020905b81548152906001019060200180831161070d57829003601f168201915b505050505090505b90565b600090815260016020526040902054600160a060020a031690565b600061075b8261123f565b9050600160a060020a03838116908216141561077657600080fd5b33600160a060020a038216148061079257506107928133611586565b151561079d57600080fd5b60006107a883610735565b600160a060020a03161415806107c65750600160a060020a03831615155b15610830576000828152600160209081526040918290208054600160a060020a031916600160a060020a03878116918217909255835186815293519093918516927f8c5be1e5ebec7d5bd14f71427d1e84f3dd0314c0f7b2291e5b200ac8c7c3b925928290030190a35b505050565b600e5490565b60085490565b8061084c33826115d7565b151561085757600080fd5b600160a060020a038416151561086c57600080fd5b600160a060020a038316151561088157600080fd5b61088b8483611636565b61089584836116d6565b61089f838361180f565b82600160a060020a031684600160a060020a03167fddf252ad1be2c89b69c2b068fc378daa952ba7f163c4a11628f55a4df523b3ef846040518082815260200191505060405180910390a350505050565b60006108fb83611274565b821061090657600080fd5b600160a060020a038316600090815260066020526040902080548390811061092a57fe5b9060005260206000200154905092915050565b6109478282611858565b5050565b8061095633826115d7565b151561096157600080fd5b61097d848484602060405190810160405280600081525061141c565b50505050565b600061098d611c36565b600e5460001061099c57600080fd5b60108054600190810191829055600160a060020a038881168452602080850184815242604080880191825260608089018c81526101a08a018e905282518084018452600381527f4731500000000000000000000000000000000000000000000000000000000000818801526101e08b01528b516102008b01528b8601516102208b0152918b01516102408a01528a01516102608901526080808b01516102808a015260a0808c01516102a08b015260c0808d01516102c08c015260e0808e01516102e08d0152600f80549a8b018082556000919091528c517f8d1108e10bcb7c27dddfc02ed9d693a074039d026cf4ea4240b40f7d581ac8026018909c029b8c018054600160a060020a03191691909b16178a5596517f8d1108e10bcb7c27dddfc02ed9d693a074039d026cf4ea4240b40f7d581ac8038b015594517f8d1108e10bcb7c27dddfc02ed9d693a074039d026cf4ea4240b40f7d581ac8048a015592517f8d1108e10bcb7c27dddfc02ed9d693a074039d026cf4ea4240b40f7d581ac805890155908901517f8d1108e10bcb7c27dddfc02ed9d693a074039d026cf4ea4240b40f7d581ac8068801558801517f8d1108e10bcb7c27dddfc02ed9d693a074039d026cf4ea4240b40f7d581ac8078701558701517f8d1108e10bcb7c27dddfc02ed9d693a074039d026cf4ea4240b40f7d581ac8088601558601517f8d1108e10bcb7c27dddfc02ed9d693a074039d026cf4ea4240b40f7d581ac8098501556101008601517f8d1108e10bcb7c27dddfc02ed9d693a074039d026cf4ea4240b40f7d581ac80a850155610120860151805195975090948694610c28937f8d1108e10bcb7c27dddfc02ed9d693a074039d026cf4ea4240b40f7d581ac80b909101920190611cf9565b506101408201518051610c4591600a840191602090910190611cf9565b506101608201518051610c6291600b840191602090910190611cf9565b506101808201518051610c7f91600c840191602090910190611cf9565b506101a08201518051610c9c91600d840191602090910190611d9f565b506101c08201518051610cb991600e840191602090910190611d9f565b506101e08201518051610cd691600f840191602090910190611d9f565b50610200820151601082015561022082015160118201556102408201516012820155610260820151601382015561028082015160148201556102a082015160158201556102c082015160168201556102e09091015160179091015550600e8054600019019055610d46338361093d565b505050505050565b600090815260208190526040902054600160a060020a0316151590565b600080610d76611c36565b600f548410610d8457600080fd5b600f805485908110610d9257fe5b6000918252602091829020604080516103008101825260189093029091018054600160a060020a031683526001810154838501526002810154838301526003810154606084015260048101546080840152600581015460a0840152600681015460c0840152600781015460e084015260088101546101008401526009810180548351818702810187019094528084529394919361012086019392830182828015610e7957602002820191906000526020600020906000905b825461010083900a900460ff16815260206001928301818104948501949093039092029101808411610e4a5790505b50505050508152602001600a8201805480602002602001604051908101604052809291908181526020018280548015610eef57602002820191906000526020600020906000905b825461010083900a900460ff16815260206001928301818104948501949093039092029101808411610ec05790505b50505050508152602001600b8201805480602002602001604051908101604052809291908181526020018280548015610f6557602002820191906000526020600020906000905b825461010083900a900460ff16815260206001928301818104948501949093039092029101808411610f365790505b50505050508152602001600c8201805480602002602001604051908101604052809291908181526020018280548015610fdb57602002820191906000526020600020906000905b825461010083900a900460ff16815260206001928301818104948501949093039092029101808411610fac5790505b5050509183525050600d8201805460408051602060026001851615610100026000190190941693909304601f810184900484028201840190925281815293820193929183018282801561106f5780601f106110445761010080835404028352916020019161106f565b820191906000526020600020905b81548152906001019060200180831161105257829003601f168201915b5050509183525050600e8201805460408051602060026001851615610100026000190190941693909304601f81018490048402820184019092528181529382019392918301828280156111035780601f106110d857610100808354040283529160200191611103565b820191906000526020600020905b8154815290600101906020018083116110e657829003601f168201915b5050509183525050600f8201805460408051602060026001851615610100026000190190941693909304601f81018490048402820184019092528181529382019392918301828280156111975780601f1061116c57610100808354040283529160200191611197565b820191906000526020600020905b81548152906001019060200180831161117a57829003601f168201915b505050918352505060108201546020820152601182015460408201526012820154606082015260138201546080820152601482015460a0820152601582015460c0820152601682015460e08201526017909101546101009091015261020081015161026090910151909590945092505050565b600061121461083b565b821061121f57600080fd5b600880548390811061122d57fe5b90600052602060002001549050919050565b600081815260208190526040812054600160a060020a031680151561126357600080fd5b92915050565b610830838383611407565b6000600160a060020a038216151561128b57600080fd5b50600160a060020a031660009081526002602052604090205490565b600b54600160a060020a031633146112be57600080fd5b600b54604051600160a060020a03909116907ff8df31144d9c2f0f6b59d69b8b98abd5459d07f2742c4df920b25aae33c6482090600090a2600b8054600160a060020a0319169055565b60606112638261151b565b600b54600160a060020a031681565b60058054604080516020601f600260001961010060018816150201909516949094049384018190048102820181019092528281526060939092909183018282801561072a5780601f106106ff5761010080835404028352916020019161072a565b600160a060020a03821633141561139957600080fd5b336000818152600360209081526040808320600160a060020a03871680855290835292819020805460ff1916861515908117909155815190815290519293927f17307eab39ab6107e8899845ad3d59bd9653f200f220920489ca2b5937696c31929181900390910190a35050565b6114118282610750565b61083083838361094b565b8161142733826115d7565b151561143257600080fd5b61143d858585610841565b611449858585856118a7565b151561145457600080fd5b5050505050565b606061146682610d4e565b151561147157600080fd5b6000828152600a602090815260409182902080548351601f6002600019610100600186161502019093169290920491820184900484028101840190945280845290918301828280156115045780601f106114d957610100808354040283529160200191611504565b820191906000526020600020905b8154815290600101906020018083116114e757829003601f168201915b50505050509050919050565b606061126382611308565b600160a060020a03811660009081526006602090815260409182902080548351818402810184019094528084526060939283018282801561150457602002820191906000526020600020905b8154815260200190600101908083116115675750505050509050919050565b600160a060020a03918216600090815260036020908152604080832093909416825291909152205460ff1690565b600b54600160a060020a031633146115cb57600080fd5b6115d481611a30565b50565b6000806115e38361123f565b905080600160a060020a031684600160a060020a0316148061161e575083600160a060020a031661161384610735565b600160a060020a0316145b8061162e575061162e8185611586565b949350505050565b81600160a060020a03166116498261123f565b600160a060020a03161461165c57600080fd5b600081815260016020526040902054600160a060020a0316156109475760008181526001602090815260408083208054600160a060020a031916905580518481529051600160a060020a038616927f8c5be1e5ebec7d5bd14f71427d1e84f3dd0314c0f7b2291e5b200ac8c7c3b925928290030190a35050565b60008060006116e58585611aa1565b600084815260076020908152604080832054600160a060020a038916845260069092529091205490935061172090600163ffffffff611b2916565b600160a060020a03861660009081526006602052604090208054919350908390811061174857fe5b90600052602060002001549050806006600087600160a060020a0316600160a060020a031681526020019081526020016000208481548110151561178857fe5b6000918252602080832090910192909255600160a060020a03871681526006909152604081208054849081106117ba57fe5b6000918252602080832090910192909255600160a060020a03871681526006909152604090208054906117f1906000198301611e19565b50600093845260076020526040808520859055908452909220555050565b600061181b8383611b3b565b50600160a060020a039091166000908152600660209081526040808320805460018101825590845282842081018590559383526007909152902055565b6118628282611bbd565b600880546000838152600960205260408120829055600182018355919091527ff3f7a9fe364faab93b216da50a3214154f22a0a2b415b23a84c8169e8b636ee3015550565b6000806118bc85600160a060020a0316611c21565b15156118cb5760019150611a27565b84600160a060020a031663f0b9e5ba8786866040518463ffffffff167c01000000000000000000000000000000000000000000000000000000000281526004018084600160a060020a0316600160a060020a0316815260200183815260200180602001828103825283818151815260200191508051906020019080838360005b8381101561196357818101518382015260200161194b565b50505050905090810190601f1680156119905780820380516001836020036101000a031916815260200191505b50945050505050602060405180830381600087803b1580156119b157600080fd5b505af11580156119c5573d6000803e3d6000fd5b505050506040513d60208110156119db57600080fd5b50517fffffffff0000000000000000000000000000000000000000000000000000000081167ff0b9e5ba0000000000000000000000000000000000000000000000000000000014925090505b50949350505050565b600160a060020a0381161515611a4557600080fd5b600b54604051600160a060020a038084169216907f8be0079c531659141344cd1fd0a4f28419497f9722a3daafe3b4186f6b6457e090600090a3600b8054600160a060020a031916600160a060020a0392909216919091179055565b81600160a060020a0316611ab48261123f565b600160a060020a031614611ac757600080fd5b600160a060020a038216600090815260026020526040902054611af190600163ffffffff611b2916565b600160a060020a0390921660009081526002602090815260408083209490945591815290819052208054600160a060020a0319169055565b600082821115611b3557fe5b50900390565b600081815260208190526040902054600160a060020a031615611b5d57600080fd5b6000818152602081815260408083208054600160a060020a031916600160a060020a03871690811790915583526002909152902054611b9d906001611c29565b600160a060020a0390921660009081526002602052604090209190915550565b600160a060020a0382161515611bd257600080fd5b611bdc828261180f565b604080518281529051600160a060020a038416916000917fddf252ad1be2c89b69c2b068fc378daa952ba7f163c4a11628f55a4df523b3ef9181900360200190a35050565b6000903b1190565b8181018281101561126357fe5b604080516103008101825260008082526020820181905291810182905260608082018390526080820183905260a0820183905260c0820183905260e08201839052610100820183905261012082018190526101408201819052610160820181905261018082018190526101a082018190526101c082018190526101e0820152610200810182905261022081018290526102408101829052610260810182905261028081018290526102a081018290526102c081018290526102e081019190915290565b82805482825590600052602060002090601f01602090048101928215611d8f5791602002820160005b83821115611d6057835183826101000a81548160ff021916908360ff1602179055509260200192600101602081600001049283019260010302611d22565b8015611d8d5782816101000a81549060ff0219169055600101602081600001049283019260010302611d60565b505b50611d9b929150611e3d565b5090565b828054600181600116156101000203166002900490600052602060002090601f016020900481019282601f10611de057805160ff1916838001178555611e0d565b82800160010185558215611e0d579182015b82811115611e0d578251825591602001919060010190611df2565b50611d9b929150611e5b565b81548183558181111561083057600083815260209020610830918101908301611e5b565b61073291905b80821115611d9b57805460ff19168155600101611e43565b61073291905b80821115611d9b5760008155600101611e615600a165627a7a72305820add40852ddb47f4e65d55f260a7b3430450f3b9628d1949a276f15843c0997000029",
  "source": "pragma solidity ^0.4.2;\n\nimport 'zeppelin-solidity/contracts/math/SafeMath.sol';\nimport \"./CToken.sol\";\n\ncontract CryptofieldBase is ERC721BasicToken, CToken {\n    using SafeMath for uint256;\n\n    uint256 stallionsAvailable = 1111;\n\n    /* TODO: 1. Check value types from this struct.\n    2. Add Phenotypes and Genotypes fields\n    @dev 'timestamp' is used to calculate the age of the horse. */\n    struct Horse {\n        address buyer;\n\n        uint256 saleId;\n        uint256 timestamp;\n        uint256 height; // Hands\n        uint256 reserveValue;\n        uint256 saleValue;\n        uint256 feeValue;\n        uint256 dateSold;\n        uint256 amountOfTimesSold;\n\n        uint8[] foalNames;\n        uint8[] parents;\n        uint8[] grandparents;\n        uint8[] greatgrandparents;\n\n        string bio;\n        string previousOwner;\n        string horseType;\n\n        bytes32 name;\n        bytes32 color;\n        bytes32 breed;\n        bytes32 runningStyle;\n        bytes32 origin;\n        bytes32 gender;\n        bytes32 rank;\n        bytes32 pedigree;\n\n    }\n\n    Horse[] horses;\n\n    // Counter for Ids\n    uint256 counter;\n\n    // Mapping for owned address to horse IDs\n    mapping(address => uint256[]) ownedHorses;\n\n    // Mapping from horse ID to index.\n    mapping(uint256 => uint256) ownedHorsesIndex;\n\n    // Mapping horse Ids to addresses.\n    mapping(uint256 => address) horseOwner;\n\n    function buyStallion(address _buyerAddress, string _bio, uint256 _height, bytes32[8] _byteParams) public payable {\n        require(stallionsAvailable > 0);\n\n        /* @dev Just a counter to have an upgoing value of ids starting from 1 up to 1111\n        until the 'require' above is not longer met. */\n        uint256 newHorseId = counter += 1;\n\n        Horse memory horse;\n        horse.buyer = _buyerAddress;\n        horse.saleId = newHorseId;\n        horse.timestamp = now;\n        horse.height = _height;\n        horse.bio = _bio;\n        horse.horseType = \"G1P\"; // G1P lack some of the initial values\n        horse.name = _byteParams[0];\n        horse.color = _byteParams[1];\n        horse.breed = _byteParams[2];\n        horse.runningStyle = _byteParams[3];\n        horse.origin = _byteParams[4];\n        horse.gender = _byteParams[5];\n        horse.rank = _byteParams[6];\n        horse.pedigree = _byteParams[7];\n\n        horses.push(horse);\n\n        stallionsAvailable -= 1;\n\n        // \"mint\" sends a Transfer event\n        mint(msg.sender, newHorseId);\n    }\n\n    function sendHorse(address _from, address _to, uint256 _horseId) public {\n        _transferTo(_from, _to, _horseId);\n    }\n\n    /* @param _from user from where we're retrieving the list of horses owned\n    @return uint256[] list of owned horses */\n    function getHorsesOwned(address _from) public view returns(uint256[]) {\n        return _getHorsesOwned(_from);\n    }\n\n    function getStallionsAvailable() public view returns(uint256) {\n        return stallionsAvailable;\n    }\n\n    function getHorse(uint256 _horseId) public view returns(bytes32, bytes32) {\n        require(_horseId < horses.length);\n\n        Horse memory horse = horses[_horseId];\n\n        return (horse.name, horse.runningStyle);\n    }\n}\n",
  "sourcePath": "/home/miguel/Documentos/Block/cryptofield/contracts/CryptofieldBase.sol",
  "compiler": {
    "name": "solc",
    "version": "0.4.24+commit.e67f0147.Emscripten.clang"
  },
  "schemaVersion": "2.0.0",
  "updatedAt": "2018-06-25T00:00:09.116Z"
}