{
  "contractName": "CToken",
  "abi": [
    {
      "constant": true,
      "inputs": [],
      "name": "name",
      "outputs": [
        {
          "name": "",
          "type": "string"
        }
      ],
      "payable": false,
      "stateMutability": "view",
      "type": "function"
    },
    {
      "constant": true,
      "inputs": [
        {
          "name": "_tokenId",
          "type": "uint256"
        }
      ],
      "name": "getApproved",
      "outputs": [
        {
          "name": "",
          "type": "address"
        }
      ],
      "payable": false,
      "stateMutability": "view",
      "type": "function"
    },
    {
      "constant": false,
      "inputs": [
        {
          "name": "_to",
          "type": "address"
        },
        {
          "name": "_tokenId",
          "type": "uint256"
        }
      ],
      "name": "approve",
      "outputs": [],
      "payable": false,
      "stateMutability": "nonpayable",
      "type": "function"
    },
    {
      "constant": true,
      "inputs": [],
      "name": "totalSupply",
      "outputs": [
        {
          "name": "",
          "type": "uint256"
        }
      ],
      "payable": false,
      "stateMutability": "view",
      "type": "function"
    },
    {
      "constant": false,
      "inputs": [
        {
          "name": "_from",
          "type": "address"
        },
        {
          "name": "_to",
          "type": "address"
        },
        {
          "name": "_tokenId",
          "type": "uint256"
        }
      ],
      "name": "transferFrom",
      "outputs": [],
      "payable": false,
      "stateMutability": "nonpayable",
      "type": "function"
    },
    {
      "constant": true,
      "inputs": [
        {
          "name": "_owner",
          "type": "address"
        },
        {
          "name": "_index",
          "type": "uint256"
        }
      ],
      "name": "tokenOfOwnerByIndex",
      "outputs": [
        {
          "name": "",
          "type": "uint256"
        }
      ],
      "payable": false,
      "stateMutability": "view",
      "type": "function"
    },
    {
      "constant": false,
      "inputs": [
        {
          "name": "_from",
          "type": "address"
        },
        {
          "name": "_to",
          "type": "address"
        },
        {
          "name": "_tokenId",
          "type": "uint256"
        }
      ],
      "name": "safeTransferFrom",
      "outputs": [],
      "payable": false,
      "stateMutability": "nonpayable",
      "type": "function"
    },
    {
      "constant": true,
      "inputs": [
        {
          "name": "_tokenId",
          "type": "uint256"
        }
      ],
      "name": "exists",
      "outputs": [
        {
          "name": "",
          "type": "bool"
        }
      ],
      "payable": false,
      "stateMutability": "view",
      "type": "function"
    },
    {
      "constant": true,
      "inputs": [
        {
          "name": "_index",
          "type": "uint256"
        }
      ],
      "name": "tokenByIndex",
      "outputs": [
        {
          "name": "",
          "type": "uint256"
        }
      ],
      "payable": false,
      "stateMutability": "view",
      "type": "function"
    },
    {
      "constant": true,
      "inputs": [
        {
          "name": "_tokenId",
          "type": "uint256"
        }
      ],
      "name": "ownerOf",
      "outputs": [
        {
          "name": "",
          "type": "address"
        }
      ],
      "payable": false,
      "stateMutability": "view",
      "type": "function"
    },
    {
      "constant": true,
      "inputs": [
        {
          "name": "_owner",
          "type": "address"
        }
      ],
      "name": "balanceOf",
      "outputs": [
        {
          "name": "",
          "type": "uint256"
        }
      ],
      "payable": false,
      "stateMutability": "view",
      "type": "function"
    },
    {
      "constant": false,
      "inputs": [],
      "name": "renounceOwnership",
      "outputs": [],
      "payable": false,
      "stateMutability": "nonpayable",
      "type": "function"
    },
    {
      "constant": true,
      "inputs": [],
      "name": "owner",
      "outputs": [
        {
          "name": "",
          "type": "address"
        }
      ],
      "payable": false,
      "stateMutability": "view",
      "type": "function"
    },
    {
      "constant": true,
      "inputs": [],
      "name": "symbol",
      "outputs": [
        {
          "name": "",
          "type": "string"
        }
      ],
      "payable": false,
      "stateMutability": "view",
      "type": "function"
    },
    {
      "constant": false,
      "inputs": [
        {
          "name": "_to",
          "type": "address"
        },
        {
          "name": "_approved",
          "type": "bool"
        }
      ],
      "name": "setApprovalForAll",
      "outputs": [],
      "payable": false,
      "stateMutability": "nonpayable",
      "type": "function"
    },
    {
      "constant": false,
      "inputs": [
        {
          "name": "_from",
          "type": "address"
        },
        {
          "name": "_to",
          "type": "address"
        },
        {
          "name": "_tokenId",
          "type": "uint256"
        },
        {
          "name": "_data",
          "type": "bytes"
        }
      ],
      "name": "safeTransferFrom",
      "outputs": [],
      "payable": false,
      "stateMutability": "nonpayable",
      "type": "function"
    },
    {
      "constant": true,
      "inputs": [
        {
          "name": "_tokenId",
          "type": "uint256"
        }
      ],
      "name": "tokenURI",
      "outputs": [
        {
          "name": "",
          "type": "string"
        }
      ],
      "payable": false,
      "stateMutability": "view",
      "type": "function"
    },
    {
      "constant": true,
      "inputs": [
        {
          "name": "_from",
          "type": "address"
        }
      ],
      "name": "getOwnedTokens",
      "outputs": [
        {
          "name": "",
          "type": "uint256[]"
        }
      ],
      "payable": false,
      "stateMutability": "view",
      "type": "function"
    },
    {
      "constant": true,
      "inputs": [
        {
          "name": "_owner",
          "type": "address"
        },
        {
          "name": "_operator",
          "type": "address"
        }
      ],
      "name": "isApprovedForAll",
      "outputs": [
        {
          "name": "",
          "type": "bool"
        }
      ],
      "payable": false,
      "stateMutability": "view",
      "type": "function"
    },
    {
      "constant": false,
      "inputs": [
        {
          "name": "_newOwner",
          "type": "address"
        }
      ],
      "name": "transferOwnership",
      "outputs": [],
      "payable": false,
      "stateMutability": "nonpayable",
      "type": "function"
    },
    {
      "inputs": [],
      "payable": false,
      "stateMutability": "nonpayable",
      "type": "constructor"
    },
    {
      "anonymous": false,
      "inputs": [
        {
          "indexed": true,
          "name": "previousOwner",
          "type": "address"
        }
      ],
      "name": "OwnershipRenounced",
      "type": "event"
    },
    {
      "anonymous": false,
      "inputs": [
        {
          "indexed": true,
          "name": "previousOwner",
          "type": "address"
        },
        {
          "indexed": true,
          "name": "newOwner",
          "type": "address"
        }
      ],
      "name": "OwnershipTransferred",
      "type": "event"
    },
    {
      "anonymous": false,
      "inputs": [
        {
          "indexed": true,
          "name": "_from",
          "type": "address"
        },
        {
          "indexed": true,
          "name": "_to",
          "type": "address"
        },
        {
          "indexed": false,
          "name": "_tokenId",
          "type": "uint256"
        }
      ],
      "name": "Transfer",
      "type": "event"
    },
    {
      "anonymous": false,
      "inputs": [
        {
          "indexed": true,
          "name": "_owner",
          "type": "address"
        },
        {
          "indexed": true,
          "name": "_approved",
          "type": "address"
        },
        {
          "indexed": false,
          "name": "_tokenId",
          "type": "uint256"
        }
      ],
      "name": "Approval",
      "type": "event"
    },
    {
      "anonymous": false,
      "inputs": [
        {
          "indexed": true,
          "name": "_owner",
          "type": "address"
        },
        {
          "indexed": true,
          "name": "_operator",
          "type": "address"
        },
        {
          "indexed": false,
          "name": "_approved",
          "type": "bool"
        }
      ],
      "name": "ApprovalForAll",
      "type": "event"
    },
    {
      "constant": true,
      "inputs": [
        {
          "name": "_from",
          "type": "address"
        }
      ],
      "name": "_getHorsesOwned",
      "outputs": [
        {
          "name": "",
          "type": "uint256[]"
        }
      ],
      "payable": false,
      "stateMutability": "view",
      "type": "function"
    },
    {
      "constant": false,
      "inputs": [
        {
          "name": "_sender",
          "type": "address"
        },
        {
          "name": "_horseId",
          "type": "uint256"
        }
      ],
      "name": "mint",
      "outputs": [],
      "payable": false,
      "stateMutability": "nonpayable",
      "type": "function"
    },
    {
      "constant": false,
      "inputs": [
        {
          "name": "_from",
          "type": "address"
        },
        {
          "name": "_to",
          "type": "address"
        },
        {
          "name": "_horseId",
          "type": "uint256"
        }
      ],
      "name": "_transferTo",
      "outputs": [],
      "payable": false,
      "stateMutability": "nonpayable",
      "type": "function"
    }
  ],
  "bytecode": "0x60806040523480156200001157600080fd5b50604080518082018252600681527f43546f6b656e000000000000000000000000000000000000000000000000000060208083019182528351808501909452600284527f43540000000000000000000000000000000000000000000000000000000000009084015281519192916200008c91600491620000c4565b508051620000a2906005906020840190620000c4565b5050600b805433600160a060020a031991821681179091161790555062000169565b828054600181600116156101000203166002900490600052602060002090601f016020900481019282601f106200010757805160ff191683800117855562000137565b8280016001018555821562000137579182015b82811115620001375782518255916020019190600101906200011a565b506200014592915062000149565b5090565b6200016691905b8082111562000145576000815560010162000150565b90565b61131480620001796000396000f3006080604052600436106101325763ffffffff7c010000000000000000000000000000000000000000000000000000000060003504166306fdde038114610137578063081812fc146101c1578063095ea7b3146101f557806318160ddd1461021b57806323b872dd146102425780632f745c591461026c57806340c10f191461029057806342842e0e146102b45780634f558e79146102de5780634f6ccce71461030a5780636352211e1461032257806370a082311461033a578063715018a61461035b57806379d41173146103705780638da5cb5b146103e157806395d89b41146103f6578063a22cb4651461040b578063b61727ed14610431578063b88d4fde1461045b578063c87b56dd146104ca578063d9d61655146104e2578063e985e9c514610503578063f2fde38b1461052a575b600080fd5b34801561014357600080fd5b5061014c61054b565b6040805160208082528351818301528351919283929083019185019080838360005b8381101561018657818101518382015260200161016e565b50505050905090810190601f1680156101b35780820380516001836020036101000a031916815260200191505b509250505060405180910390f35b3480156101cd57600080fd5b506101d96004356105e2565b60408051600160a060020a039092168252519081900360200190f35b34801561020157600080fd5b50610219600160a060020a03600435166024356105fd565b005b34801561022757600080fd5b506102306106ef565b60408051918252519081900360200190f35b34801561024e57600080fd5b50610219600160a060020a03600435811690602435166044356106f5565b34801561027857600080fd5b50610230600160a060020a03600435166024356107a4565b34801561029c57600080fd5b50610219600160a060020a03600435166024356107f1565b3480156102c057600080fd5b50610219600160a060020a03600435811690602435166044356107ff565b3480156102ea57600080fd5b506102f6600435610837565b604080519115158252519081900360200190f35b34801561031657600080fd5b50610230600435610854565b34801561032e57600080fd5b506101d9600435610889565b34801561034657600080fd5b50610230600160a060020a03600435166108b3565b34801561036757600080fd5b506102196108e6565b34801561037c57600080fd5b50610391600160a060020a0360043516610954565b60408051602080825283518183015283519192839290830191858101910280838360005b838110156103cd5781810151838201526020016103b5565b505050509050019250505060405180910390f35b3480156103ed57600080fd5b506101d961095f565b34801561040257600080fd5b5061014c61096e565b34801561041757600080fd5b50610219600160a060020a036004351660243515156109cf565b34801561043d57600080fd5b50610219600160a060020a0360043581169060243516604435610a53565b34801561046757600080fd5b50604080516020601f60643560048181013592830184900484028501840190955281845261021994600160a060020a038135811695602480359092169560443595369560849401918190840183828082843750949750610a689650505050505050565b3480156104d657600080fd5b5061014c600435610aa7565b3480156104ee57600080fd5b50610391600160a060020a0360043516610b5c565b34801561050f57600080fd5b506102f6600160a060020a0360043581169060243516610bc7565b34801561053657600080fd5b50610219600160a060020a0360043516610bf5565b60048054604080516020601f60026000196101006001881615020190951694909404938401819004810282018101909252828152606093909290918301828280156105d75780601f106105ac576101008083540402835291602001916105d7565b820191906000526020600020905b8154815290600101906020018083116105ba57829003601f168201915b505050505090505b90565b600090815260016020526040902054600160a060020a031690565b600061060882610889565b9050600160a060020a03838116908216141561062357600080fd5b33600160a060020a038216148061063f575061063f8133610bc7565b151561064a57600080fd5b6000610655836105e2565b600160a060020a03161415806106735750600160a060020a03831615155b156106ea57600082815260016020908152604091829020805473ffffffffffffffffffffffffffffffffffffffff1916600160a060020a03878116918217909255835186815293519093918516927f8c5be1e5ebec7d5bd14f71427d1e84f3dd0314c0f7b2291e5b200ac8c7c3b925928290030190a35b505050565b60085490565b806107003382610c18565b151561070b57600080fd5b600160a060020a038416151561072057600080fd5b600160a060020a038316151561073557600080fd5b61073f8483610c77565b6107498483610d24565b6107538383610e5d565b82600160a060020a031684600160a060020a03167fddf252ad1be2c89b69c2b068fc378daa952ba7f163c4a11628f55a4df523b3ef846040518082815260200191505060405180910390a350505050565b60006107af836108b3565b82106107ba57600080fd5b600160a060020a03831660009081526006602052604090208054839081106107de57fe5b9060005260206000200154905092915050565b6107fb8282610ea6565b5050565b8061080a3382610c18565b151561081557600080fd5b6108318484846020604051908101604052806000815250610a68565b50505050565b600090815260208190526040902054600160a060020a0316151590565b600061085e6106ef565b821061086957600080fd5b600880548390811061087757fe5b90600052602060002001549050919050565b600081815260208190526040812054600160a060020a03168015156108ad57600080fd5b92915050565b6000600160a060020a03821615156108ca57600080fd5b50600160a060020a031660009081526002602052604090205490565b600b54600160a060020a031633146108fd57600080fd5b600b54604051600160a060020a03909116907ff8df31144d9c2f0f6b59d69b8b98abd5459d07f2742c4df920b25aae33c6482090600090a2600b805473ffffffffffffffffffffffffffffffffffffffff19169055565b60606108ad82610b5c565b600b54600160a060020a031681565b60058054604080516020601f60026000196101006001881615020190951694909404938401819004810282018101909252828152606093909290918301828280156105d75780601f106105ac576101008083540402835291602001916105d7565b600160a060020a0382163314156109e557600080fd5b336000818152600360209081526040808320600160a060020a03871680855290835292819020805460ff1916861515908117909155815190815290519293927f17307eab39ab6107e8899845ad3d59bd9653f200f220920489ca2b5937696c31929181900390910190a35050565b610a5d82826105fd565b6106ea8383836107ff565b81610a733382610c18565b1515610a7e57600080fd5b610a898585856106f5565b610a9585858585610ef5565b1515610aa057600080fd5b5050505050565b6060610ab282610837565b1515610abd57600080fd5b6000828152600a602090815260409182902080548351601f600260001961010060018616150201909316929092049182018490048402810184019094528084529091830182828015610b505780601f10610b2557610100808354040283529160200191610b50565b820191906000526020600020905b815481529060010190602001808311610b3357829003601f168201915b50505050509050919050565b600160a060020a038116600090815260066020908152604091829020805483518184028101840190945280845260609392830182828015610b5057602002820191906000526020600020905b815481526020019060010190808311610ba85750505050509050919050565b600160a060020a03918216600090815260036020908152604080832093909416825291909152205460ff1690565b600b54600160a060020a03163314610c0c57600080fd5b610c158161107e565b50565b600080610c2483610889565b905080600160a060020a031684600160a060020a03161480610c5f575083600160a060020a0316610c54846105e2565b600160a060020a0316145b80610c6f5750610c6f8185610bc7565b949350505050565b81600160a060020a0316610c8a82610889565b600160a060020a031614610c9d57600080fd5b600081815260016020526040902054600160a060020a0316156107fb576000818152600160209081526040808320805473ffffffffffffffffffffffffffffffffffffffff1916905580518481529051600160a060020a038616927f8c5be1e5ebec7d5bd14f71427d1e84f3dd0314c0f7b2291e5b200ac8c7c3b925928290030190a35050565b6000806000610d3385856110fc565b600084815260076020908152604080832054600160a060020a0389168452600690925290912054909350610d6e90600163ffffffff61119116565b600160a060020a038616600090815260066020526040902080549193509083908110610d9657fe5b90600052602060002001549050806006600087600160a060020a0316600160a060020a0316815260200190815260200160002084815481101515610dd657fe5b6000918252602080832090910192909255600160a060020a0387168152600690915260408120805484908110610e0857fe5b6000918252602080832090910192909255600160a060020a0387168152600690915260409020805490610e3f9060001983016112ab565b50600093845260076020526040808520859055908452909220555050565b6000610e6983836111a3565b50600160a060020a039091166000908152600660209081526040808320805460018101825590845282842081018590559383526007909152902055565b610eb08282611232565b600880546000838152600960205260408120829055600182018355919091527ff3f7a9fe364faab93b216da50a3214154f22a0a2b415b23a84c8169e8b636ee3015550565b600080610f0a85600160a060020a0316611296565b1515610f195760019150611075565b84600160a060020a031663f0b9e5ba8786866040518463ffffffff167c01000000000000000000000000000000000000000000000000000000000281526004018084600160a060020a0316600160a060020a0316815260200183815260200180602001828103825283818151815260200191508051906020019080838360005b83811015610fb1578181015183820152602001610f99565b50505050905090810190601f168015610fde5780820380516001836020036101000a031916815260200191505b50945050505050602060405180830381600087803b158015610fff57600080fd5b505af1158015611013573d6000803e3d6000fd5b505050506040513d602081101561102957600080fd5b50517fffffffff0000000000000000000000000000000000000000000000000000000081167ff0b9e5ba0000000000000000000000000000000000000000000000000000000014925090505b50949350505050565b600160a060020a038116151561109357600080fd5b600b54604051600160a060020a038084169216907f8be0079c531659141344cd1fd0a4f28419497f9722a3daafe3b4186f6b6457e090600090a3600b805473ffffffffffffffffffffffffffffffffffffffff1916600160a060020a0392909216919091179055565b81600160a060020a031661110f82610889565b600160a060020a03161461112257600080fd5b600160a060020a03821660009081526002602052604090205461114c90600163ffffffff61119116565b600160a060020a039092166000908152600260209081526040808320949094559181529081905220805473ffffffffffffffffffffffffffffffffffffffff19169055565b60008282111561119d57fe5b50900390565b600081815260208190526040902054600160a060020a0316156111c557600080fd5b600081815260208181526040808320805473ffffffffffffffffffffffffffffffffffffffff1916600160a060020a0387169081179091558352600290915290205461121290600161129e565b600160a060020a0390921660009081526002602052604090209190915550565b600160a060020a038216151561124757600080fd5b6112518282610e5d565b604080518281529051600160a060020a038416916000917fddf252ad1be2c89b69c2b068fc378daa952ba7f163c4a11628f55a4df523b3ef9181900360200190a35050565b6000903b1190565b818101828110156108ad57fe5b8154818355818111156106ea576000838152602090206106ea9181019083016105df91905b808211156112e457600081556001016112d0565b50905600a165627a7a72305820ad29f9a2922aa16ab6431e4004bd52a2053d317b8127e20f8f88868d308b9eaf0029",
  "source": "pragma solidity ^0.4.2;\n\nimport './ERC721Token.sol';\nimport 'zeppelin-solidity/contracts/token/ERC721/ERC721BasicToken.sol';\nimport 'zeppelin-solidity/contracts/ownership/Ownable.sol';\n\ncontract CToken is ERC721BasicToken, ERC721Token, Ownable {\n    constructor() ERC721Token(\"CToken\", \"CT\") public {\n        owner = msg.sender;\n    }\n\n    // Mapping for owned address to horse IDs\n    mapping(address => uint256[]) ownedHorses;\n\n    // Mapping from horse ID to index.\n    mapping(uint256 => uint256) ownedHorsesIndex;\n\n    /* @dev Returns an array of ids of horses owned by '_from' */\n    function _getHorsesOwned(address _from) public view returns(uint256[]) {\n        return getOwnedTokens(_from);\n    }\n\n    function mint(address _sender, uint256 _horseId) public {\n        _mint(_sender, _horseId);\n    }\n\n    function _transferTo(address _from, address _to, uint256 _horseId) public {\n        approve(_to, _horseId);\n        safeTransferFrom(_from, _to, _horseId);\n    }\n}\n",
  "sourcePath": "/home/miguel/Documentos/Block/cryptofield/contracts/CToken.sol",
  "compiler": {
    "name": "solc",
    "version": "0.4.24+commit.e67f0147.Emscripten.clang"
  },
  "schemaVersion": "2.0.0",
  "updatedAt": "2018-06-25T00:00:45.294Z"
}