{
  "contractName": "ERC721Token",
  "abi": [
    {
      "constant": true,
      "inputs": [
        {
          "name": "_tokenId",
          "type": "uint256"
        }
      ],
      "name": "getApproved",
      "outputs": [
        {
          "name": "",
          "type": "address"
        }
      ],
      "payable": false,
      "stateMutability": "view",
      "type": "function"
    },
    {
      "constant": false,
      "inputs": [
        {
          "name": "_to",
          "type": "address"
        },
        {
          "name": "_tokenId",
          "type": "uint256"
        }
      ],
      "name": "approve",
      "outputs": [],
      "payable": false,
      "stateMutability": "nonpayable",
      "type": "function"
    },
    {
      "constant": false,
      "inputs": [
        {
          "name": "_from",
          "type": "address"
        },
        {
          "name": "_to",
          "type": "address"
        },
        {
          "name": "_tokenId",
          "type": "uint256"
        }
      ],
      "name": "transferFrom",
      "outputs": [],
      "payable": false,
      "stateMutability": "nonpayable",
      "type": "function"
    },
    {
      "constant": false,
      "inputs": [
        {
          "name": "_from",
          "type": "address"
        },
        {
          "name": "_to",
          "type": "address"
        },
        {
          "name": "_tokenId",
          "type": "uint256"
        }
      ],
      "name": "safeTransferFrom",
      "outputs": [],
      "payable": false,
      "stateMutability": "nonpayable",
      "type": "function"
    },
    {
      "constant": true,
      "inputs": [
        {
          "name": "_tokenId",
          "type": "uint256"
        }
      ],
      "name": "exists",
      "outputs": [
        {
          "name": "",
          "type": "bool"
        }
      ],
      "payable": false,
      "stateMutability": "view",
      "type": "function"
    },
    {
      "constant": true,
      "inputs": [
        {
          "name": "_tokenId",
          "type": "uint256"
        }
      ],
      "name": "ownerOf",
      "outputs": [
        {
          "name": "",
          "type": "address"
        }
      ],
      "payable": false,
      "stateMutability": "view",
      "type": "function"
    },
    {
      "constant": true,
      "inputs": [
        {
          "name": "_owner",
          "type": "address"
        }
      ],
      "name": "balanceOf",
      "outputs": [
        {
          "name": "",
          "type": "uint256"
        }
      ],
      "payable": false,
      "stateMutability": "view",
      "type": "function"
    },
    {
      "constant": false,
      "inputs": [
        {
          "name": "_to",
          "type": "address"
        },
        {
          "name": "_approved",
          "type": "bool"
        }
      ],
      "name": "setApprovalForAll",
      "outputs": [],
      "payable": false,
      "stateMutability": "nonpayable",
      "type": "function"
    },
    {
      "constant": false,
      "inputs": [
        {
          "name": "_from",
          "type": "address"
        },
        {
          "name": "_to",
          "type": "address"
        },
        {
          "name": "_tokenId",
          "type": "uint256"
        },
        {
          "name": "_data",
          "type": "bytes"
        }
      ],
      "name": "safeTransferFrom",
      "outputs": [],
      "payable": false,
      "stateMutability": "nonpayable",
      "type": "function"
    },
    {
      "constant": true,
      "inputs": [
        {
          "name": "_owner",
          "type": "address"
        },
        {
          "name": "_operator",
          "type": "address"
        }
      ],
      "name": "isApprovedForAll",
      "outputs": [
        {
          "name": "",
          "type": "bool"
        }
      ],
      "payable": false,
      "stateMutability": "view",
      "type": "function"
    },
    {
      "inputs": [
        {
          "name": "_name",
          "type": "string"
        },
        {
          "name": "_symbol",
          "type": "string"
        }
      ],
      "payable": false,
      "stateMutability": "nonpayable",
      "type": "constructor"
    },
    {
      "anonymous": false,
      "inputs": [
        {
          "indexed": true,
          "name": "_from",
          "type": "address"
        },
        {
          "indexed": true,
          "name": "_to",
          "type": "address"
        },
        {
          "indexed": false,
          "name": "_tokenId",
          "type": "uint256"
        }
      ],
      "name": "Transfer",
      "type": "event"
    },
    {
      "anonymous": false,
      "inputs": [
        {
          "indexed": true,
          "name": "_owner",
          "type": "address"
        },
        {
          "indexed": true,
          "name": "_approved",
          "type": "address"
        },
        {
          "indexed": false,
          "name": "_tokenId",
          "type": "uint256"
        }
      ],
      "name": "Approval",
      "type": "event"
    },
    {
      "anonymous": false,
      "inputs": [
        {
          "indexed": true,
          "name": "_owner",
          "type": "address"
        },
        {
          "indexed": true,
          "name": "_operator",
          "type": "address"
        },
        {
          "indexed": false,
          "name": "_approved",
          "type": "bool"
        }
      ],
      "name": "ApprovalForAll",
      "type": "event"
    },
    {
      "constant": true,
      "inputs": [],
      "name": "name",
      "outputs": [
        {
          "name": "",
          "type": "string"
        }
      ],
      "payable": false,
      "stateMutability": "view",
      "type": "function"
    },
    {
      "constant": true,
      "inputs": [],
      "name": "symbol",
      "outputs": [
        {
          "name": "",
          "type": "string"
        }
      ],
      "payable": false,
      "stateMutability": "view",
      "type": "function"
    },
    {
      "constant": true,
      "inputs": [
        {
          "name": "_tokenId",
          "type": "uint256"
        }
      ],
      "name": "tokenURI",
      "outputs": [
        {
          "name": "",
          "type": "string"
        }
      ],
      "payable": false,
      "stateMutability": "view",
      "type": "function"
    },
    {
      "constant": true,
      "inputs": [
        {
          "name": "_owner",
          "type": "address"
        },
        {
          "name": "_index",
          "type": "uint256"
        }
      ],
      "name": "tokenOfOwnerByIndex",
      "outputs": [
        {
          "name": "",
          "type": "uint256"
        }
      ],
      "payable": false,
      "stateMutability": "view",
      "type": "function"
    },
    {
      "constant": true,
      "inputs": [],
      "name": "totalSupply",
      "outputs": [
        {
          "name": "",
          "type": "uint256"
        }
      ],
      "payable": false,
      "stateMutability": "view",
      "type": "function"
    },
    {
      "constant": true,
      "inputs": [
        {
          "name": "_index",
          "type": "uint256"
        }
      ],
      "name": "tokenByIndex",
      "outputs": [
        {
          "name": "",
          "type": "uint256"
        }
      ],
      "payable": false,
      "stateMutability": "view",
      "type": "function"
    },
    {
      "constant": true,
      "inputs": [
        {
          "name": "_from",
          "type": "address"
        }
      ],
      "name": "getOwnedTokens",
      "outputs": [
        {
          "name": "",
          "type": "uint256[]"
        }
      ],
      "payable": false,
      "stateMutability": "view",
      "type": "function"
    }
  ],
  "bytecode": "0x60806040523480156200001157600080fd5b506040516200113b3803806200113b8339810160405280516020808301519183018051909392909201916200004d91600491908501906200006c565b508051620000639060059060208401906200006c565b50505062000111565b828054600181600116156101000203166002900490600052602060002090601f016020900481019282601f10620000af57805160ff1916838001178555620000df565b82800160010185558215620000df579182015b82811115620000df578251825591602001919060010190620000c2565b50620000ed929150620000f1565b5090565b6200010e91905b80821115620000ed5760008155600101620000f8565b90565b61101a80620001216000396000f3006080604052600436106100f05763ffffffff7c010000000000000000000000000000000000000000000000000000000060003504166306fdde0381146100f5578063081812fc1461017f578063095ea7b3146101b357806318160ddd146101d957806323b872dd146102005780632f745c591461022a57806342842e0e1461024e5780634f558e79146102785780634f6ccce7146102a45780636352211e146102bc57806370a08231146102d457806395d89b41146102f5578063a22cb4651461030a578063b88d4fde14610330578063c87b56dd1461039f578063d9d61655146103b7578063e985e9c514610428575b600080fd5b34801561010157600080fd5b5061010a61044f565b6040805160208082528351818301528351919283929083019185019080838360005b8381101561014457818101518382015260200161012c565b50505050905090810190601f1680156101715780820380516001836020036101000a031916815260200191505b509250505060405180910390f35b34801561018b57600080fd5b506101976004356104e6565b60408051600160a060020a039092168252519081900360200190f35b3480156101bf57600080fd5b506101d7600160a060020a0360043516602435610501565b005b3480156101e557600080fd5b506101ee6105f3565b60408051918252519081900360200190f35b34801561020c57600080fd5b506101d7600160a060020a03600435811690602435166044356105f9565b34801561023657600080fd5b506101ee600160a060020a03600435166024356106a8565b34801561025a57600080fd5b506101d7600160a060020a03600435811690602435166044356106f5565b34801561028457600080fd5b5061029060043561072d565b604080519115158252519081900360200190f35b3480156102b057600080fd5b506101ee60043561074a565b3480156102c857600080fd5b5061019760043561077f565b3480156102e057600080fd5b506101ee600160a060020a03600435166107a9565b34801561030157600080fd5b5061010a6107dc565b34801561031657600080fd5b506101d7600160a060020a0360043516602435151561083d565b34801561033c57600080fd5b50604080516020601f6064356004818101359283018490048402850184019095528184526101d794600160a060020a0381358116956024803590921695604435953695608494019181908401838280828437509497506108c19650505050505050565b3480156103ab57600080fd5b5061010a600435610900565b3480156103c357600080fd5b506103d8600160a060020a03600435166109b5565b60408051602080825283518183015283519192839290830191858101910280838360005b838110156104145781810151838201526020016103fc565b505050509050019250505060405180910390f35b34801561043457600080fd5b50610290600160a060020a0360043581169060243516610a20565b60048054604080516020601f60026000196101006001881615020190951694909404938401819004810282018101909252828152606093909290918301828280156104db5780601f106104b0576101008083540402835291602001916104db565b820191906000526020600020905b8154815290600101906020018083116104be57829003601f168201915b505050505090505b90565b600090815260016020526040902054600160a060020a031690565b600061050c8261077f565b9050600160a060020a03838116908216141561052757600080fd5b33600160a060020a038216148061054357506105438133610a20565b151561054e57600080fd5b6000610559836104e6565b600160a060020a03161415806105775750600160a060020a03831615155b156105ee57600082815260016020908152604091829020805473ffffffffffffffffffffffffffffffffffffffff1916600160a060020a03878116918217909255835186815293519093918516927f8c5be1e5ebec7d5bd14f71427d1e84f3dd0314c0f7b2291e5b200ac8c7c3b925928290030190a35b505050565b60085490565b806106043382610a4e565b151561060f57600080fd5b600160a060020a038416151561062457600080fd5b600160a060020a038316151561063957600080fd5b6106438483610aad565b61064d8483610b5b565b6106578383610c94565b82600160a060020a031684600160a060020a03167fddf252ad1be2c89b69c2b068fc378daa952ba7f163c4a11628f55a4df523b3ef846040518082815260200191505060405180910390a350505050565b60006106b3836107a9565b82106106be57600080fd5b600160a060020a03831660009081526006602052604090208054839081106106e257fe5b9060005260206000200154905092915050565b806107003382610a4e565b151561070b57600080fd5b61072784848460206040519081016040528060008152506108c1565b50505050565b600090815260208190526040902054600160a060020a0316151590565b60006107546105f3565b821061075f57600080fd5b600880548390811061076d57fe5b90600052602060002001549050919050565b600081815260208190526040812054600160a060020a03168015156107a357600080fd5b92915050565b6000600160a060020a03821615156107c057600080fd5b50600160a060020a031660009081526002602052604090205490565b60058054604080516020601f60026000196101006001881615020190951694909404938401819004810282018101909252828152606093909290918301828280156104db5780601f106104b0576101008083540402835291602001916104db565b600160a060020a03821633141561085357600080fd5b336000818152600360209081526040808320600160a060020a03871680855290835292819020805460ff1916861515908117909155815190815290519293927f17307eab39ab6107e8899845ad3d59bd9653f200f220920489ca2b5937696c31929181900390910190a35050565b816108cc3382610a4e565b15156108d757600080fd5b6108e28585856105f9565b6108ee85858585610cdd565b15156108f957600080fd5b5050505050565b606061090b8261072d565b151561091657600080fd5b6000828152600a602090815260409182902080548351601f6002600019610100600186161502019093169290920491820184900484028101840190945280845290918301828280156109a95780601f1061097e576101008083540402835291602001916109a9565b820191906000526020600020905b81548152906001019060200180831161098c57829003601f168201915b50505050509050919050565b600160a060020a0381166000908152600660209081526040918290208054835181840281018401909452808452606093928301828280156109a957602002820191906000526020600020905b815481526020019060010190808311610a015750505050509050919050565b600160a060020a03918216600090815260036020908152604080832093909416825291909152205460ff1690565b600080610a5a8361077f565b905080600160a060020a031684600160a060020a03161480610a95575083600160a060020a0316610a8a846104e6565b600160a060020a0316145b80610aa55750610aa58185610a20565b949350505050565b81600160a060020a0316610ac08261077f565b600160a060020a031614610ad357600080fd5b600081815260016020526040902054600160a060020a031615610b57576000818152600160209081526040808320805473ffffffffffffffffffffffffffffffffffffffff1916905580518481529051600160a060020a038616927f8c5be1e5ebec7d5bd14f71427d1e84f3dd0314c0f7b2291e5b200ac8c7c3b925928290030190a35b5050565b6000806000610b6a8585610e66565b600084815260076020908152604080832054600160a060020a0389168452600690925290912054909350610ba590600163ffffffff610efb16565b600160a060020a038616600090815260066020526040902080549193509083908110610bcd57fe5b90600052602060002001549050806006600087600160a060020a0316600160a060020a0316815260200190815260200160002084815481101515610c0d57fe5b6000918252602080832090910192909255600160a060020a0387168152600690915260408120805484908110610c3f57fe5b6000918252602080832090910192909255600160a060020a0387168152600690915260409020805490610c76906000198301610fb1565b50600093845260076020526040808520859055908452909220555050565b6000610ca08383610f0d565b50600160a060020a039091166000908152600660209081526040808320805460018101825590845282842081018590559383526007909152902055565b600080610cf285600160a060020a0316610f9c565b1515610d015760019150610e5d565b84600160a060020a031663f0b9e5ba8786866040518463ffffffff167c01000000000000000000000000000000000000000000000000000000000281526004018084600160a060020a0316600160a060020a0316815260200183815260200180602001828103825283818151815260200191508051906020019080838360005b83811015610d99578181015183820152602001610d81565b50505050905090810190601f168015610dc65780820380516001836020036101000a031916815260200191505b50945050505050602060405180830381600087803b158015610de757600080fd5b505af1158015610dfb573d6000803e3d6000fd5b505050506040513d6020811015610e1157600080fd5b50517fffffffff0000000000000000000000000000000000000000000000000000000081167ff0b9e5ba0000000000000000000000000000000000000000000000000000000014925090505b50949350505050565b81600160a060020a0316610e798261077f565b600160a060020a031614610e8c57600080fd5b600160a060020a038216600090815260026020526040902054610eb690600163ffffffff610efb16565b600160a060020a039092166000908152600260209081526040808320949094559181529081905220805473ffffffffffffffffffffffffffffffffffffffff19169055565b600082821115610f0757fe5b50900390565b600081815260208190526040902054600160a060020a031615610f2f57600080fd5b600081815260208181526040808320805473ffffffffffffffffffffffffffffffffffffffff1916600160a060020a03871690811790915583526002909152902054610f7c906001610fa4565b600160a060020a0390921660009081526002602052604090209190915550565b6000903b1190565b818101828110156107a357fe5b8154818355818111156105ee576000838152602090206105ee9181019083016104e391905b80821115610fea5760008155600101610fd6565b50905600a165627a7a72305820b8d9daafcf065fdcd6337d7f58260789b1b823a4b36c2b36bfda10a1b2e70b360029",
  "source": "pragma solidity ^0.4.2;\n\nimport 'zeppelin-solidity/contracts/token/ERC721/ERC721.sol';\nimport 'zeppelin-solidity/contracts/token/ERC721/ERC721BasicToken.sol';\n\ncontract ERC721Token is ERC721, ERC721BasicToken {\n  // Token name\n  string internal name_;\n\n  // Token symbol\n  string internal symbol_;\n\n  // Mapping from owner to list of owned token IDs\n  mapping(address => uint256[]) internal ownedTokens;\n\n  // Mapping from token ID to index of the owner tokens list\n  mapping(uint256 => uint256) internal ownedTokensIndex;\n\n  // Array with all token ids, used for enumeration\n  uint256[] internal allTokens;\n\n  // Mapping from token id to position in the allTokens array\n  mapping(uint256 => uint256) internal allTokensIndex;\n\n  // Optional mapping for token URIs\n  mapping(uint256 => string) internal tokenURIs;\n\n  /**\n   * @dev Constructor function\n   */\n  constructor(string _name, string _symbol) public {\n    name_ = _name;\n    symbol_ = _symbol;\n  }\n\n  /**\n   * @dev Gets the token name\n   * @return string representing the token name\n   */\n  function name() public view returns (string) {\n    return name_;\n  }\n\n  /**\n   * @dev Gets the token symbol\n   * @return string representing the token symbol\n   */\n  function symbol() public view returns (string) {\n    return symbol_;\n  }\n\n  /**\n   * @dev Returns an URI for a given token ID\n   * @dev Throws if the token ID does not exist. May return an empty string.\n   * @param _tokenId uint256 ID of the token to query\n   */\n  function tokenURI(uint256 _tokenId) public view returns (string) {\n    require(exists(_tokenId));\n    return tokenURIs[_tokenId];\n  }\n\n  /**\n   * @dev Gets the token ID at a given index of the tokens list of the requested owner\n   * @param _owner address owning the tokens list to be accessed\n   * @param _index uint256 representing the index to be accessed of the requested tokens list\n   * @return uint256 token ID at the given index of the tokens list owned by the requested address\n   */\n  function tokenOfOwnerByIndex(\n    address _owner,\n    uint256 _index\n  )\n    public\n    view\n    returns (uint256)\n  {\n    require(_index < balanceOf(_owner));\n    return ownedTokens[_owner][_index];\n  }\n\n  /**\n   * @dev Gets the total amount of tokens stored by the contract\n   * @return uint256 representing the total amount of tokens\n   */\n  function totalSupply() public view returns (uint256) {\n    return allTokens.length;\n  }\n\n  /**\n   * @dev Gets the token ID at a given index of all the tokens in this contract\n   * @dev Reverts if the index is greater or equal to the total number of tokens\n   * @param _index uint256 representing the index to be accessed of the tokens list\n   * @return uint256 token ID at the given index of the tokens list\n   */\n  function tokenByIndex(uint256 _index) public view returns (uint256) {\n    require(_index < totalSupply());\n    return allTokens[_index];\n  }\n\n  /**\n   * @dev Internal function to set the token URI for a given token\n   * @dev Reverts if the token ID does not exist\n   * @param _tokenId uint256 ID of the token to set its URI\n   * @param _uri string URI to assign\n   */\n  function _setTokenURI(uint256 _tokenId, string _uri) internal {\n    require(exists(_tokenId));\n    tokenURIs[_tokenId] = _uri;\n  }\n\n  /**\n   * @dev Internal function to add a token ID to the list of a given address\n   * @param _to address representing the new owner of the given token ID\n   * @param _tokenId uint256 ID of the token to be added to the tokens list of the given address\n   */\n  function addTokenTo(address _to, uint256 _tokenId) internal {\n    super.addTokenTo(_to, _tokenId);\n    uint256 length = ownedTokens[_to].length;\n    ownedTokens[_to].push(_tokenId);\n    ownedTokensIndex[_tokenId] = length;\n  }\n\n  /**\n   * @dev Internal function to remove a token ID from the list of a given address\n   * @param _from address representing the previous owner of the given token ID\n   * @param _tokenId uint256 ID of the token to be removed from the tokens list of the given address\n   */\n  function removeTokenFrom(address _from, uint256 _tokenId) internal {\n    super.removeTokenFrom(_from, _tokenId);\n\n    uint256 tokenIndex = ownedTokensIndex[_tokenId];\n    uint256 lastTokenIndex = ownedTokens[_from].length.sub(1);\n    uint256 lastToken = ownedTokens[_from][lastTokenIndex];\n\n    ownedTokens[_from][tokenIndex] = lastToken;\n    ownedTokens[_from][lastTokenIndex] = 0;\n    // Note that this will handle single-element arrays. In that case, both tokenIndex and lastTokenIndex are going to\n    // be zero. Then we can make sure that we will remove _tokenId from the ownedTokens list since we are first swapping\n    // the lastToken to the first position, and then dropping the element placed in the last position of the list\n\n    ownedTokens[_from].length--;\n    ownedTokensIndex[_tokenId] = 0;\n    ownedTokensIndex[lastToken] = tokenIndex;\n  }\n\n  function getOwnedTokens(address _from) public view returns(uint256[]) {\n    return ownedTokens[_from];\n  }\n\n  /**\n   * @dev Internal function to mint a new token\n   * @dev Reverts if the given token ID already exists\n   * @param _to address the beneficiary that will own the minted token\n   * @param _tokenId uint256 ID of the token to be minted by the msg.sender\n   */\n  function _mint(address _to, uint256 _tokenId) internal {\n    super._mint(_to, _tokenId);\n\n    allTokensIndex[_tokenId] = allTokens.length;\n    allTokens.push(_tokenId);\n  }\n\n  /**\n   * @dev Internal function to burn a specific token\n   * @dev Reverts if the token does not exist\n   * @param _owner owner of the token to burn\n   * @param _tokenId uint256 ID of the token being burned by the msg.sender\n   */\n  function _burn(address _owner, uint256 _tokenId) internal {\n    super._burn(_owner, _tokenId);\n\n    // Clear metadata (if any)\n    if (bytes(tokenURIs[_tokenId]).length != 0) {\n      delete tokenURIs[_tokenId];\n    }\n\n    // Reorg all tokens array\n    uint256 tokenIndex = allTokensIndex[_tokenId];\n    uint256 lastTokenIndex = allTokens.length.sub(1);\n    uint256 lastToken = allTokens[lastTokenIndex];\n\n    allTokens[tokenIndex] = lastToken;\n    allTokens[lastTokenIndex] = 0;\n\n    allTokens.length--;\n    allTokensIndex[_tokenId] = 0;\n    allTokensIndex[lastToken] = tokenIndex;\n  }\n\n}\n",
  "sourcePath": "/home/miguel/Documentos/Block/cryptofield/contracts/ERC721Token.sol",
  "compiler": {
    "name": "solc",
    "version": "0.4.24+commit.e67f0147.Emscripten.clang"
  },
  "schemaVersion": "2.0.0",
  "updatedAt": "2018-06-22T22:14:05.603Z"
}